:020000040800F2
:10000000780600208901000891010008930100088A
:100010009501000897010008990100080000000000
:100020000000000000000000000000009B0100082C
:100030009D010008000000009F010008A1010008C8
:10004000A3010008A3010008A3010008A301000800
:10005000A3010008A3010008A3010008A3010008F0
:10006000A3010008A3010008A3010008A3010008E0
:10007000A3010008A3010008A3010008A3010008D0
:10008000A3010008A3010008A3010008A3010008C0
:10009000A3010008A3010008A3010008A3010008B0
:1000A000A3010008A3010008A3010008A3010008A0
:1000B000A3010008A301000800000000A30100083C
:1000C000A30100080000000000000000A3010008D8
:1000D00000000000A3010008A301000800000000C8
:1000E000A3010008A3010008A301000800F002F822
:1000F00000F03AF80AA090E8000C82448344AAF188
:100100000107DA4501D100F02FF8AFF2090EBAE885
:100110000F0013F0010F18BFFB1A43F0010318473B
:10012000A4070000C4070000103A24BF78C878C1B3
:10013000FAD8520724BF30C830C144BF04680C60ED
:10014000704700000023002400250026103A28BF35
:1001500078C1FBD8520728BF30C148BF0B60704739
:100160001FB51FBD10B510BD00F031F81146FFF7E7
:10017000F7FF00F08FFB00F04FF803B4FFF7F2FF3A
:1001800003BC00F057F800000948804709480047C1
:10019000FEE7FEE7FEE7FEE7FEE7FEE7FEE7FEE737
:1001A000FEE7FEE704480549054A064B7047000094
:1001B000FD060008ED000008780000207806002009
:1001C000780200207802002070477047704775461B
:1001D00000F02CF8AE4605006946534620F00700B3
:1001E000854618B020B5FFF7DDFFBDE820404FF091
:1001F00000064FF000074FF000084FF0000B21F011
:100200000701AC46ACE8C009ACE8C009ACE8C009DD
:10021000ACE8C0098D46704710B50446AFF30080C6
:100220002046BDE81040FFF7A8BF00000048704717
:100230001400002001491820ABBEFEE72600020092
:1002400070472DE9F04102460025002600200023DA
:100250000024002791F803C00CF00F0591F803C0AB
:100260000CF0100CBCF1000F03D091F802C04CEA66
:10027000050591F800C0BCF1000F31D014680020D2
:100280002BE04FF0010C0CFA00F3B1F800C00CEABF
:1002900003069E4220D183004FF00F0C0CFA03F7A7
:1002A000BC4305FA03FC4CEA040491F803C0BCF11A
:1002B000280F06D14FF0010C0CFA00FCC2F814C054
:1002C0000AE091F803C0BCF1480F05D14FF0010CD2
:1002D0000CFA00FCC2F810C0401C0828D1D31460EE
:1002E000B1F800C0BCF1FF0F34DD546800202EE0EF
:1002F00000F1080C4FF0010808FA0CF3B1F800C047
:100300000CEA03069E4221D183004FF00F0C0CFA39
:1003100003F7BC4305FA03FC4CEA040491F803C05C
:10032000BCF1280F05D100F1080C08FA0CF8C2F84E
:10033000148091F803C0BCF1480F07D100F1080CFC
:100340004FF0010808FA0CF8C2F81080401C082889
:10035000CED35460BDE8F08110B502460B460021B3
:10036000002009E0145C0C44A1B2FF2902DDA1F1D8
:10037000FF04A1B2441CE0B29842F3DBC843C0B210
:1003800010BD10B5014601F00100C1F3400460400A
:10039000C1F3800480EA0402C1F34000C1F3C00449
:1003A0006040C1F300146040C1F340146040C0439A
:1003B000C3B242EA43008007000E10BD70B5064686
:1003C0000C46154600F00EF800F058F8304600F0E4
:1003D0003FF82946204600F023F82946204600F041
:1003E00009F870BD10B5024800F04AFA10BD0000CF
:1003F0000038014070B504460D4629462046FFF7F7
:10040000ABFF06463146054800F03FFA00BF4021E9
:10041000024800F0AFF90028F9D070BD0038014063
:1004200070B505460E4600240CE0295D074800F033
:100430002CFA00BF4021054800F09CF90028F9D0B3
:10044000601CC4B2B442F0DB70BD00000038014053
:1004500070B504462046FFF794FF40EA040529469C
:10046000054800F012FA00BF4021034800F082F96D
:100470000028F9D070BD00000038014010B55521AA
:10048000054800F002FA00BF4021034800F072F96D
:100490000028F9D010BD00000038014000B585B03B
:1004A000012144F2040000F03BF84FF40070ADF875
:1004B000000018208DF8030003208DF80200694623
:1004C0001548FFF7BEFE4FF48060ADF80000042031
:1004D0008DF8030069461048FFF7B3FE4FF49640CD
:1004E00001900020ADF80800ADF80A00ADF80C004E
:1004F000ADF810000C20ADF80E0001A9074800F07F
:1005000047F90121054800F029F90121034800F0CD
:10051000ABF905B000BD0000000801400038014003
:1005200029B1064A92690243044B9A6104E0034AE6
:1005300092698243014B9A617047000000100240AB
:1005400030B500210022002400232D4D6D6805F0F8
:100550000C0121B1042905D0082923D105E0294D3A
:10056000056022E0274D05601FE0254D6D6805F40C
:100570007012234D6D6805F48034022505EB92421C
:100580001CB9214D554305600BE01D4D6D6805F408
:1005900000351DB11C4D5543056002E0194D554312
:1005A000056002E0174D056000BF00BF144D6D6887
:1005B00005F0F0010909154D6B5C0568DD404560EB
:1005C0000F4D6D6805F4E061090A104D6B5C4568DC
:1005D000DD4085600A4D6D6805F46051C90A0B4D18
:1005E0006B5C4568DD40C560054D6D6805F44041B4
:1005F000890B074D6B5CC568B5FBF3F5056130BD34
:100600000010024000127A0000093D0000000020A6
:100610001000002010B500F001F810BD0CB500204E
:10062000019000903348006840F480303149086000
:1006300000BF3048006800F4003000900198401C72
:100640000190009818B90198B0F5A06FF1D1294830
:10065000006800F4003010B10120009001E000209B
:1006600000900098012843D12348006840F0100012
:10067000214908600846006820F007000860084625
:10068000006840F0020008601A4840681949486054
:100690000846406848600846406840F4806048600A
:1006A0000846406820F47C1048600846406840F4E2
:1006B000E81048600846006840F08070086000BF9D
:1006C0000C48006800F000700028F9D00948406824
:1006D00020F00300074948600846406840F00200E7
:1006E000486000BF0348406800F00C000828F9D1BA
:1006F0000CBD0000001002400020024010B513485D
:10070000006840F00100114908600846406810493F
:1007100008400E494860084600680E4908400B49E9
:1007200008600846006820F4802008600846406899
:1007300020F4FE0048604FF41F008860FFF76AFF56
:100740004FF000600449086010BD00000010024036
:100750000000FFF8FFFFF6FE08ED00E021B18289FE
:1007600042F40052828104E082894DF6FF731A4000
:100770008281704702460020B1F5007F00D100BFA2
:1007800013880B400BB1012000E0002070470000EF
:100790002DE9F04786B005460E460024A24600BF6C
:1007A000A1460027B08900B100BF2F462C8A4CF625
:1007B000FF700440F08804432C82AC894EF6F3109D
:1007C0000440B08831890843718908430443AC81EF
:1007D000AC8A4FF6FF400440B0890443AC8201A8C4
:1007E000FFF7AEFE1F48874202D1DDF810A001E0FE
:1007F000DDF80CA0A88900F4004040B10AEBCA0063
:1008000000EB0A1031684900B0FBF1F807E00AEB91
:10081000CA0000EB0A1031688900B0FBF1F86420CF
:10082000B8FBF0F004012009642101FB1089A889BC
:1008300000F4004040B1322000EBC900B0FBF1F001
:1008400000F00700044308E0322000EB09106421A7
:10085000B0FBF1F000F00F0004432C8106B0BDE8BE
:10086000F08700000038014021B1028A42F4804242
:10087000028204E0028A4BF6FF731A40028270473C
:10088000818941F0010181817047C1F308028280B2
:100890007047000008B509A000680090FFF7FEFD52
:1008A0000AE0042269461020FFF788FD002000E0DE
:1008B000401C03498842FBDBF3E700001234567802
:1008C00040420F00E408000800000020140000006F
:1008D00028010008F8080008140000206406000041
:1008E00044010008000000000102030401020304A7
:0808F0000607080902040608CE
:040000050800018965
:00000001FF
