:020000040800F2
:100000008006002089010008910100089301000882
:100010009501000897010008990100080000000000
:100020000000000000000000000000009B0100082C
:100030009D010008000000009F010008A1010008C8
:10004000A3010008A3010008A3010008A301000800
:10005000A3010008A3010008A3010008A3010008F0
:10006000A3010008A3010008A3010008A3010008E0
:10007000A3010008A3010008A3010008A3010008D0
:10008000A3010008A3010008A3010008A3010008C0
:10009000A3010008A3010008A3010008A3010008B0
:1000A000A3010008A3010008A3010008A3010008A0
:1000B000A3010008A3010008A3010008A301000890
:1000C000A3010008A3010008A3010008A301000880
:1000D000A3010008A3010008A3010008A301000870
:1000E000A3010008A3010008A301000800F002F822
:1000F00000F03AF80AA090E8000C82448344AAF188
:100100000107DA4501D100F02FF8AFF2090EBAE885
:100110000F0013F0010F18BFFB1A43F0010318473B
:1001200084080000A4080000103A24BF78C878C1F1
:10013000FAD8520724BF30C830C144BF04680C60ED
:10014000704700000023002400250026103A28BF35
:1001500078C1FBD8520728BF30C148BF0B60704739
:100160001FB51FBD10B510BD00F031F81146FFF7E7
:10017000F7FF00F0E3FB00F04FF803B4FFF7F2FFE6
:1001800003BC00F057F800000948804709480047C1
:10019000FEE7FEE7FEE7FEE7FEE7FEE7FEE7FEE737
:1001A000FEE7FEE704480549054A064B7047000094
:1001B000C5070008ED000008800000208006002030
:1001C000800200208002002070477047704775460B
:1001D00000F02CF8AE4605006946534620F00700B3
:1001E000854618B020B5FFF7DDFFBDE820404FF091
:1001F00000064FF000074FF000084FF0000B21F011
:100200000701AC46ACE8C009ACE8C009ACE8C009DD
:10021000ACE8C0098D46704710B50446AFF30080C6
:100220002046BDE81040FFF7A8BF00000048704717
:100230002000002001491820ABBEFEE72600020086
:10024000704710B500214FF0804000F012FB00BF56
:100250004FF0804000F00AFBB0F57A7FF8DB10BD6C
:1002600010B5044602E0FFF7ECFF641E002CFAD143
:1002700010BD2DE9F04105460E4690461F4600F0A0
:100280007FF97106080E00F0B5F920B900F098F971
:100290000020BDE8F081281200F0ACF918B900F098
:1002A0008FF90020F5E7E8B200F0A4F918B900F0E2
:1002B00087F90020EDE700F063F9012101EB460129
:1002C000C8B200F097F918B900F07AF90020E0E719
:1002D000002405E0012000F00BF93855601CC4B281
:1002E000A8F10100A042F5DC002000F001F938552A
:1002F00000F066F90120CCE72DE9F04105460E46F5
:100300001746984600242EE000F03AF97106080ED0
:1003100000F070F920B900F053F90020BDE8F08139
:100320002919C1F3072000F065F918B900F048F960
:100330000020F3E72919C8B200F05CF918B900F001
:100340003FF90020EAE718F8040000F053F918B963
:1003500000F036F90020E1E700F032F90A20FFF75B
:100360007FFF601CC4B2BC42CEDB0120D6E7000098
:1003700008B50121082000F097F914208DF803003A
:10038000C020ADF8000003208DF802006946024845
:1003900000F004F808BD0000000C01402DE9F04118
:1003A000024600250026002000230024002791F8A3
:1003B00003C00CF00F0591F803C00CF0100CBCF159
:1003C000000F03D091F802C04CEA050591F800C077
:1003D000BCF1000F31D0146800202BE04FF0010C6D
:1003E0000CFA00F3B1F800C00CEA03069E4220D1DB
:1003F00083004FF00F0C0CFA03F7BC4305FA03FC23
:100400004CEA040491F803C0BCF1280F06D14FF068
:10041000010C0CFA00FCC2F814C00AE091F803C009
:10042000BCF1480F05D14FF0010C0CFA00FCC2F8EA
:1004300010C0401C0828D1D31460B1F800C0BCF132
:10044000FF0F34DD546800202EE000F1080C4FF05F
:10045000010808FA0CF3B1F800C00CEA03069E424A
:1004600021D183004FF00F0C0CFA03F7BC4305FABF
:1004700003FC4CEA040491F803C0BCF1280F05D139
:1004800000F1080C08FA0CF8C2F8148091F803C0C7
:10049000BCF1480F07D100F1080C4FF0010808FA31
:1004A0000CF8C2F81080401C0828CED35460BDE878
:1004B000F0810246002093680B400BB1012000E060
:1004C00000207047416170470161704710B580217D
:1004D0000648FFF7F9FF012000F020FA4021034809
:1004E000FFF7F2FF012000F019FA10BD000C0140E7
:1004F00070B50546002480212048FFF7E5FF012064
:1005000000F00CFA00261AE06006040E40211B4899
:10051000FFF7DAFF032000F001FA80211748FFF708
:10052000C8FF08B144F00104022000F0F7F94021AF
:100530001248FFF7C7FF052000F0F0F9761C082EDF
:10054000E2DB25B180210D48FFF7BCFF03E08021ED
:100550000A48FFF7B9FF012000F0E0F94021074801
:10056000FFF7B2FF052000F0D9F940210348FFF75B
:10057000A9FF052000F0D2F9204670BD000C014013
:1005800010B540210D48FFF79FFF032000F0C6F98A
:1005900080210A48FFF798FF032000F0BFF980216F
:1005A0000648FFF78FFF032000F0B8F94021034809
:1005B000FFF788FF032000F0B1F910BD000C0140E7
:1005C00010B580210A48FFF77DFF032000F0A6F94F
:1005D00040210748FFF778FF032000F09FF98021B2
:1005E0000348FFF771FF032000F098F910BD0000E9
:1005F000000C014070B5044600261FE004F08000A6
:1006000020B180211F48FFF75FFF03E080211D48D4
:10061000FFF758FF032000F081F940211948FFF748
:1006200053FF052000F07AF940211648FFF74AFFF2
:10063000052000F073F96006040E761C082EDDDB41
:1006400080211048FFF740FF032000F067F94021A8
:100650000C48FFF739FF032000F060F980210948BA
:10066000FFF727FF08B1002500E00125022000F078
:1006700055F940210348FFF725FF052000F04EF90A
:10068000284670BD000C014029B1064AD2690243D8
:10069000044BDA6104E0034AD2698243014BDA6118
:1006A000704700000010024029B1064A92690243D7
:1006B000044B9A6104E0034A92698243014B9A61B8
:1006C000704700000010024010B501210820FFF71C
:1006D000EBFF01210846FFF7D7FF10BD10B500F072
:1006E00001F810BD0CB5002001900090334800685F
:1006F00040F480303149086000BF3048006800F4A1
:10070000003000900198401C0190009818B90198A1
:10071000B0F5A06FF1D12948006800F4003010B1A5
:100720000120009001E0002000900098012843D1B2
:100730002348006840F0100021490860084600681E
:1007400020F0070008600846006840F002000860DA
:100750001A48406819494860084640684860084699
:10076000406840F4806048600846406820F47C108F
:1007700048600846406840F4E81048600846006851
:1007800040F08070086000BF0C48006800F0007006
:100790000028F9D00948406820F003000749486064
:1007A0000846406840F00200486000BF03484068C7
:1007B00000F00C000828F9D10CBD00000010024028
:1007C0000020024010B51348006840F001001149B4
:1007D000086008464068104908400E4948600846CD
:1007E00000680E4908400B4908600846006820F47C
:1007F000802008600846406820F4FE0048604FF4FE
:100800001F008860FFF76AFF4FF00060044908602E
:1008100010BD0000001002400000FFF8FFFFF6FED0
:1008200008ED00E021B1028842F00102028004E0FC
:1008300002884FF6FE731A40028070470EB5002002
:10084000ADF802004FF6FF70ADF804004720ADF898
:1008500000000020ADF8060069464FF0804000F02F
:100860000BF801218807FFF7DDFF0EBD0146888CDC
:100870007047818470470000002202881D4B984217
:100880000ED01D4B98420BD0B0F1804F08D01B4BBF
:10089000984205D01A4B984202D01A4B984204D184
:1008A0004FF68F731A404B881A43174B984207D064
:1008B000164B984204D04FF6FF431A40CB881A4398
:1008C00002808B8883850B8803850A4B98420BD066
:1008D000094B984208D00E4B984205D00D4B9842D8
:1008E00002D00D4B984201D10B7A038601238382FB
:1008F00070470000002C014000340140000400401B
:1009000000080040000C00400010004000140040AF
:1009100000400140004401400048014010B5044639
:1009200000214FF08040FFF7A4FF00BF4FF0804050
:10093000FFF79CFFA042F9D310BD0000FFF7C4FEF3
:10094000FFF77CFFFFF714FDFFF7C0FD00BF124B60
:100950000A2250214520FFF7CFFC0028F7D000BF26
:100960000E4B0A2250216020FFF7C6FC0028F7D06A
:1009700011E000BF0A4B0A2250214520FFF779FC05
:100980000028F7D000BF064B0A2250216020FFF755
:1009900070FC0028F7D0ECE7000000200A000020DF
:1009A00014000020C409000800000020140000000A
:1009B00028010008D8090008140000206C06000077
:1009C0004401000803050EDAA66F500000F0010A8A
:0809D0001924FA103C48597784
:04000005080000ED02
:00000001FF
